{
  "contractName": "SupplyChain",
  "abi": [
    {
      "constant": false,
      "inputs": [
        {
          "name": "account",
          "type": "address"
        }
      ],
      "name": "addConsumer",
      "outputs": [],
      "payable": false,
      "stateMutability": "nonpayable",
      "type": "function"
    },
    {
      "constant": true,
      "inputs": [
        {
          "name": "account",
          "type": "address"
        }
      ],
      "name": "isRetailer",
      "outputs": [
        {
          "name": "",
          "type": "bool"
        }
      ],
      "payable": false,
      "stateMutability": "view",
      "type": "function"
    },
    {
      "constant": false,
      "inputs": [],
      "name": "renounceConsumer",
      "outputs": [],
      "payable": false,
      "stateMutability": "nonpayable",
      "type": "function"
    },
    {
      "constant": false,
      "inputs": [],
      "name": "renounceDistributor",
      "outputs": [],
      "payable": false,
      "stateMutability": "nonpayable",
      "type": "function"
    },
    {
      "constant": false,
      "inputs": [
        {
          "name": "account",
          "type": "address"
        }
      ],
      "name": "addDistributor",
      "outputs": [],
      "payable": false,
      "stateMutability": "nonpayable",
      "type": "function"
    },
    {
      "constant": false,
      "inputs": [
        {
          "name": "account",
          "type": "address"
        }
      ],
      "name": "addFarmer",
      "outputs": [],
      "payable": false,
      "stateMutability": "nonpayable",
      "type": "function"
    },
    {
      "constant": false,
      "inputs": [],
      "name": "renounceFarmer",
      "outputs": [],
      "payable": false,
      "stateMutability": "nonpayable",
      "type": "function"
    },
    {
      "constant": true,
      "inputs": [
        {
          "name": "account",
          "type": "address"
        }
      ],
      "name": "isConsumer",
      "outputs": [
        {
          "name": "",
          "type": "bool"
        }
      ],
      "payable": false,
      "stateMutability": "view",
      "type": "function"
    },
    {
      "constant": false,
      "inputs": [
        {
          "name": "account",
          "type": "address"
        }
      ],
      "name": "addRetailer",
      "outputs": [],
      "payable": false,
      "stateMutability": "nonpayable",
      "type": "function"
    },
    {
      "constant": true,
      "inputs": [
        {
          "name": "account",
          "type": "address"
        }
      ],
      "name": "isDistributor",
      "outputs": [
        {
          "name": "",
          "type": "bool"
        }
      ],
      "payable": false,
      "stateMutability": "view",
      "type": "function"
    },
    {
      "constant": true,
      "inputs": [
        {
          "name": "account",
          "type": "address"
        }
      ],
      "name": "isFarmer",
      "outputs": [
        {
          "name": "",
          "type": "bool"
        }
      ],
      "payable": false,
      "stateMutability": "view",
      "type": "function"
    },
    {
      "constant": false,
      "inputs": [],
      "name": "renounceRetailer",
      "outputs": [],
      "payable": false,
      "stateMutability": "nonpayable",
      "type": "function"
    },
    {
      "inputs": [],
      "payable": true,
      "stateMutability": "payable",
      "type": "constructor"
    },
    {
      "anonymous": false,
      "inputs": [
        {
          "indexed": false,
          "name": "upc",
          "type": "uint256"
        }
      ],
      "name": "Harvested",
      "type": "event"
    },
    {
      "anonymous": false,
      "inputs": [
        {
          "indexed": false,
          "name": "upc",
          "type": "uint256"
        }
      ],
      "name": "Processed",
      "type": "event"
    },
    {
      "anonymous": false,
      "inputs": [
        {
          "indexed": false,
          "name": "upc",
          "type": "uint256"
        }
      ],
      "name": "Packed",
      "type": "event"
    },
    {
      "anonymous": false,
      "inputs": [
        {
          "indexed": false,
          "name": "upc",
          "type": "uint256"
        }
      ],
      "name": "ForSale",
      "type": "event"
    },
    {
      "anonymous": false,
      "inputs": [
        {
          "indexed": false,
          "name": "upc",
          "type": "uint256"
        }
      ],
      "name": "Sold",
      "type": "event"
    },
    {
      "anonymous": false,
      "inputs": [
        {
          "indexed": false,
          "name": "upc",
          "type": "uint256"
        }
      ],
      "name": "Shipped",
      "type": "event"
    },
    {
      "anonymous": false,
      "inputs": [
        {
          "indexed": false,
          "name": "upc",
          "type": "uint256"
        }
      ],
      "name": "Received",
      "type": "event"
    },
    {
      "anonymous": false,
      "inputs": [
        {
          "indexed": false,
          "name": "upc",
          "type": "uint256"
        }
      ],
      "name": "Purchased",
      "type": "event"
    },
    {
      "anonymous": false,
      "inputs": [
        {
          "indexed": true,
          "name": "account",
          "type": "address"
        }
      ],
      "name": "ConsumerAdded",
      "type": "event"
    },
    {
      "anonymous": false,
      "inputs": [
        {
          "indexed": true,
          "name": "account",
          "type": "address"
        }
      ],
      "name": "ConsumerRemoved",
      "type": "event"
    },
    {
      "anonymous": false,
      "inputs": [
        {
          "indexed": true,
          "name": "account",
          "type": "address"
        }
      ],
      "name": "RetailerAdded",
      "type": "event"
    },
    {
      "anonymous": false,
      "inputs": [
        {
          "indexed": true,
          "name": "account",
          "type": "address"
        }
      ],
      "name": "RetailerRemoved",
      "type": "event"
    },
    {
      "anonymous": false,
      "inputs": [
        {
          "indexed": true,
          "name": "account",
          "type": "address"
        }
      ],
      "name": "DistributorAdded",
      "type": "event"
    },
    {
      "anonymous": false,
      "inputs": [
        {
          "indexed": true,
          "name": "account",
          "type": "address"
        }
      ],
      "name": "DistributorRemoved",
      "type": "event"
    },
    {
      "anonymous": false,
      "inputs": [
        {
          "indexed": true,
          "name": "account",
          "type": "address"
        }
      ],
      "name": "FarmerAdded",
      "type": "event"
    },
    {
      "anonymous": false,
      "inputs": [
        {
          "indexed": true,
          "name": "account",
          "type": "address"
        }
      ],
      "name": "FarmerRemoved",
      "type": "event"
    },
    {
      "constant": false,
      "inputs": [],
      "name": "kill",
      "outputs": [],
      "payable": false,
      "stateMutability": "nonpayable",
      "type": "function"
    },
    {
      "constant": false,
      "inputs": [
        {
          "name": "_upc",
          "type": "uint256"
        },
        {
          "name": "_originFarmerID",
          "type": "address"
        },
        {
          "name": "_originFarmName",
          "type": "string"
        },
        {
          "name": "_originFarmInformation",
          "type": "string"
        },
        {
          "name": "_originFarmLatitude",
          "type": "string"
        },
        {
          "name": "_originFarmLongitude",
          "type": "string"
        },
        {
          "name": "_productNotes",
          "type": "string"
        }
      ],
      "name": "harvestItem",
      "outputs": [],
      "payable": false,
      "stateMutability": "nonpayable",
      "type": "function"
    },
    {
      "constant": false,
      "inputs": [
        {
          "name": "_upc",
          "type": "uint256"
        }
      ],
      "name": "processItem",
      "outputs": [],
      "payable": false,
      "stateMutability": "nonpayable",
      "type": "function"
    },
    {
      "constant": false,
      "inputs": [
        {
          "name": "_upc",
          "type": "uint256"
        }
      ],
      "name": "packItem",
      "outputs": [],
      "payable": false,
      "stateMutability": "nonpayable",
      "type": "function"
    },
    {
      "constant": false,
      "inputs": [
        {
          "name": "_upc",
          "type": "uint256"
        },
        {
          "name": "_price",
          "type": "uint256"
        }
      ],
      "name": "sellItem",
      "outputs": [],
      "payable": false,
      "stateMutability": "nonpayable",
      "type": "function"
    },
    {
      "constant": false,
      "inputs": [
        {
          "name": "_upc",
          "type": "uint256"
        }
      ],
      "name": "buyItem",
      "outputs": [],
      "payable": true,
      "stateMutability": "payable",
      "type": "function"
    },
    {
      "constant": false,
      "inputs": [
        {
          "name": "_upc",
          "type": "uint256"
        }
      ],
      "name": "shipItem",
      "outputs": [],
      "payable": false,
      "stateMutability": "nonpayable",
      "type": "function"
    },
    {
      "constant": false,
      "inputs": [
        {
          "name": "_upc",
          "type": "uint256"
        }
      ],
      "name": "receiveItem",
      "outputs": [],
      "payable": false,
      "stateMutability": "nonpayable",
      "type": "function"
    },
    {
      "constant": false,
      "inputs": [
        {
          "name": "_upc",
          "type": "uint256"
        }
      ],
      "name": "purchaseItem",
      "outputs": [],
      "payable": false,
      "stateMutability": "nonpayable",
      "type": "function"
    },
    {
      "constant": true,
      "inputs": [
        {
          "name": "_upc",
          "type": "uint256"
        }
      ],
      "name": "fetchItemBufferOne",
      "outputs": [
        {
          "name": "itemSKU",
          "type": "uint256"
        },
        {
          "name": "itemUPC",
          "type": "uint256"
        },
        {
          "name": "ownerID",
          "type": "address"
        },
        {
          "name": "originFarmerID",
          "type": "address"
        },
        {
          "name": "originFarmName",
          "type": "string"
        },
        {
          "name": "originFarmInformation",
          "type": "string"
        },
        {
          "name": "originFarmLatitude",
          "type": "string"
        },
        {
          "name": "originFarmLongitude",
          "type": "string"
        }
      ],
      "payable": false,
      "stateMutability": "view",
      "type": "function"
    },
    {
      "constant": true,
      "inputs": [
        {
          "name": "_upc",
          "type": "uint256"
        }
      ],
      "name": "fetchItemBufferTwo",
      "outputs": [
        {
          "name": "itemSKU",
          "type": "uint256"
        },
        {
          "name": "itemUPC",
          "type": "uint256"
        },
        {
          "name": "productID",
          "type": "uint256"
        },
        {
          "name": "productNotes",
          "type": "string"
        },
        {
          "name": "productPrice",
          "type": "uint256"
        },
        {
          "name": "itemState",
          "type": "uint256"
        },
        {
          "name": "distributorID",
          "type": "address"
        },
        {
          "name": "retailerID",
          "type": "address"
        },
        {
          "name": "consumerID",
          "type": "address"
        }
      ],
      "payable": false,
      "stateMutability": "view",
      "type": "function"
    }
  ],
  "bytecode": "0x60806040526200001e33620000c3640100000000026401000000009004565b62000038336200012d640100000000026401000000009004565b620000523362000197640100000000026401000000009004565b6200006c3362000201640100000000026401000000009004565b33600460006101000a81548173ffffffffffffffffffffffffffffffffffffffff021916908373ffffffffffffffffffffffffffffffffffffffff16021790555060016006819055506001600581905550620003c3565b620000e78160006200026b6401000000000262002309179091906401000000009004565b8073ffffffffffffffffffffffffffffffffffffffff167f2e0ded4123377a3c2bc9a26f1717655a129e2f20752924d42e730ec89c83dbd060405160405180910390a250565b620001518160016200026b6401000000000262002309179091906401000000009004565b8073ffffffffffffffffffffffffffffffffffffffff167fddbf200aa634dc3fb81cfd68583dd1040d1c751d335e1d86b631bde3e977fea860405160405180910390a250565b620001bb8160026200026b6401000000000262002309179091906401000000009004565b8073ffffffffffffffffffffffffffffffffffffffff167f71ae26cad02663e3d92efd6ec56031a80d74a20c0ab4183faa8bf262261c9baa60405160405180910390a250565b620002258160036200026b6401000000000262002309179091906401000000009004565b8073ffffffffffffffffffffffffffffffffffffffff167f28b26e7a3d20aedbc5f8f2ebf7da671c0491723a2b78f47a097b0e46dee0714260405160405180910390a250565b600073ffffffffffffffffffffffffffffffffffffffff168173ffffffffffffffffffffffffffffffffffffffff1614151515620002a857600080fd5b620002c382826200032e640100000000026401000000009004565b151515620002d057600080fd5b60018260000160008373ffffffffffffffffffffffffffffffffffffffff1673ffffffffffffffffffffffffffffffffffffffff16815260200190815260200160002060006101000a81548160ff0219169083151502179055505050565b60008073ffffffffffffffffffffffffffffffffffffffff168273ffffffffffffffffffffffffffffffffffffffff16141515156200036c57600080fd5b8260000160008373ffffffffffffffffffffffffffffffffffffffff1673ffffffffffffffffffffffffffffffffffffffff16815260200190815260200160002060009054906101000a900460ff16905092915050565b61253980620003d36000396000f300608060405260043610610133576000357c0100000000000000000000000000000000000000000000000000000000900463ffffffff168063112940f9146101385780632d9235611461017b57806341c0e1b5146101b257806349dae766146101c95780635da09b88146101f657806361e6982d14610251578063644241db1461026857806366225ff91461027f5780637250e224146103e157806377c459131461042457806380c3f96d1461068257806380fc0ce4146106c5578063834ff739146106dc5780638ec4f505146107375780638f0c86fa1461077a578063a26be999146107d5578063b942906914610802578063bdd8a6a81461085d578063d38ea5bf14610a08578063db0e6a2f14610a35578063e7fb74c714610a4c578063f30fc48014610a6c578063f61c899a14610a99575b600080fd5b34801561014457600080fd5b50610179600480360381019080803573ffffffffffffffffffffffffffffffffffffffff169060200190929190505050610ac6565b005b34801561018757600080fd5b506101b06004803603810190808035906020019092919080359060200190929190505050610ae6565b005b3480156101be57600080fd5b506101c7610bfa565b005b3480156101d557600080fd5b506101f460048036038101908080359060200190929190505050610c8d565b005b34801561020257600080fd5b50610237600480360381019080803573ffffffffffffffffffffffffffffffffffffffff169060200190929190505050610d85565b604051808215151515815260200191505060405180910390f35b34801561025d57600080fd5b50610266610da2565b005b34801561027457600080fd5b5061027d610dad565b005b34801561028b57600080fd5b506102aa60048036038101908080359060200190929190505050610db8565b604051808a8152602001898152602001888152602001806020018781526020018681526020018573ffffffffffffffffffffffffffffffffffffffff1673ffffffffffffffffffffffffffffffffffffffff1681526020018473ffffffffffffffffffffffffffffffffffffffff1673ffffffffffffffffffffffffffffffffffffffff1681526020018373ffffffffffffffffffffffffffffffffffffffff1673ffffffffffffffffffffffffffffffffffffffff168152602001828103825288818151815260200191508051906020019080838360005b8381101561039e578082015181840152602081019050610383565b50505050905090810190601f1680156103cb5780820380516001836020036101000a031916815260200191505b509a505050505050505050505060405180910390f35b3480156103ed57600080fd5b50610422600480360381019080803573ffffffffffffffffffffffffffffffffffffffff169060200190929190505050610fe0565b005b34801561043057600080fd5b5061044f60048036038101908080359060200190929190505050611000565b604051808981526020018881526020018773ffffffffffffffffffffffffffffffffffffffff1673ffffffffffffffffffffffffffffffffffffffff1681526020018673ffffffffffffffffffffffffffffffffffffffff1673ffffffffffffffffffffffffffffffffffffffff16815260200180602001806020018060200180602001858103855289818151815260200191508051906020019080838360005b8381101561050b5780820151818401526020810190506104f0565b50505050905090810190601f1680156105385780820380516001836020036101000a031916815260200191505b50858103845288818151815260200191508051906020019080838360005b83811015610571578082015181840152602081019050610556565b50505050905090810190601f16801561059e5780820380516001836020036101000a031916815260200191505b50858103835287818151815260200191508051906020019080838360005b838110156105d75780820151818401526020810190506105bc565b50505050905090810190601f1680156106045780820380516001836020036101000a031916815260200191505b50858103825286818151815260200191508051906020019080838360005b8381101561063d578082015181840152602081019050610622565b50505050905090810190601f16801561066a5780820380516001836020036101000a031916815260200191505b509c5050505050505050505050505060405180910390f35b34801561068e57600080fd5b506106c3600480360381019080803573ffffffffffffffffffffffffffffffffffffffff169060200190929190505050611397565b005b3480156106d157600080fd5b506106da6113b7565b005b3480156106e857600080fd5b5061071d600480360381019080803573ffffffffffffffffffffffffffffffffffffffff1690602001909291905050506113c2565b604051808215151515815260200191505060405180910390f35b34801561074357600080fd5b50610778600480360381019080803573ffffffffffffffffffffffffffffffffffffffff1690602001909291905050506113df565b005b34801561078657600080fd5b506107bb600480360381019080803573ffffffffffffffffffffffffffffffffffffffff1690602001909291905050506113ff565b604051808215151515815260200191505060405180910390f35b3480156107e157600080fd5b506108006004803603810190808035906020019092919050505061141c565b005b34801561080e57600080fd5b50610843600480360381019080803573ffffffffffffffffffffffffffffffffffffffff169060200190929190505050611596565b604051808215151515815260200191505060405180910390f35b34801561086957600080fd5b50610a0660048036038101908080359060200190929190803573ffffffffffffffffffffffffffffffffffffffff169060200190929190803590602001908201803590602001908080601f0160208091040260200160405190810160405280939291908181526020018383808284378201915050505050509192919290803590602001908201803590602001908080601f0160208091040260200160405190810160405280939291908181526020018383808284378201915050505050509192919290803590602001908201803590602001908080601f0160208091040260200160405190810160405280939291908181526020018383808284378201915050505050509192919290803590602001908201803590602001908080601f0160208091040260200160405190810160405280939291908181526020018383808284378201915050505050509192919290803590602001908201803590602001908080601f01602080910402602001604051908101604052809392919081815260200183838082843782019150505050505091929192905050506115b3565b005b348015610a1457600080fd5b50610a336004803603810190808035906020019092919050505061196f565b005b348015610a4157600080fd5b50610a4a611ae8565b005b610a6a60048036038101908080359060200190929190505050611af3565b005b348015610a7857600080fd5b50610a9760048036038101908080359060200190929190505050611db5565b005b348015610aa557600080fd5b50610ac460048036038101908080359060200190929190505050611ead565b005b610acf336113c2565b1515610ada57600080fd5b610ae381611fa5565b50565b8160026007811115610af457fe5b60076000838152602001908152602001600020600b0160009054906101000a900460ff166007811115610b2357fe5b141515610b2f57600080fd5b338073ffffffffffffffffffffffffffffffffffffffff163373ffffffffffffffffffffffffffffffffffffffff16141515610b6a57600080fd5b8260076000868152602001908152602001600020600a0181905550600360076000868152602001908152602001600020600b0160006101000a81548160ff02191690836007811115610bb857fe5b02179055507fa96ae0fc3224ebd79eebfe54bd130cc9cb94416cddd1f2386115e00b72532468846040518082815260200191505060405180910390a150505050565b600460009054906101000a900473ffffffffffffffffffffffffffffffffffffffff1673ffffffffffffffffffffffffffffffffffffffff163373ffffffffffffffffffffffffffffffffffffffff161415610c8b57600460009054906101000a900473ffffffffffffffffffffffffffffffffffffffff1673ffffffffffffffffffffffffffffffffffffffff16ff5b565b8060006007811115610c9b57fe5b60076000838152602001908152602001600020600b0160009054906101000a900460ff166007811115610cca57fe5b141515610cd657600080fd5b338073ffffffffffffffffffffffffffffffffffffffff163373ffffffffffffffffffffffffffffffffffffffff16141515610d1157600080fd5b600160076000858152602001908152602001600020600b0160006101000a81548160ff02191690836007811115610d4457fe5b02179055507f5afe3b1bf87069693c075da5c22a98d63d1aef98a30dbbe538d0781a98b77ee5836040518082815260200191505060405180910390a1505050565b6000610d9b826002611fff90919063ffffffff16565b9050919050565b610dab33612093565b565b610db6336120ed565b565b600080600060606000806000806000600760008b8152602001908152602001600020600001549850600760008b8152602001908152602001600020600101549750600760008b8152602001908152602001600020600801549650600760008b81526020019081526020016000206009018054600181600116156101000203166002900480601f016020809104026020016040519081016040528092919081815260200182805460018160011615610100020316600290048015610ebc5780601f10610e9157610100808354040283529160200191610ebc565b820191906000526020600020905b815481529060010190602001808311610e9f57829003601f168201915b50505050509550600760008b8152602001908152602001600020600a01549450600760008b8152602001908152602001600020600b0160009054906101000a900460ff166007811115610f0b57fe5b9350600760008b8152602001908152602001600020600b0160019054906101000a900473ffffffffffffffffffffffffffffffffffffffff169250600760008b8152602001908152602001600020600c0160009054906101000a900473ffffffffffffffffffffffffffffffffffffffff169150600760008b8152602001908152602001600020600d0160009054906101000a900473ffffffffffffffffffffffffffffffffffffffff1690508888888888888888889850985098509850985098509850985098509193959799909294969850565b610fe9336113ff565b1515610ff457600080fd5b610ffd81612147565b50565b600080600080606080606080600760008a8152602001908152602001600020600001549750600760008a8152602001908152602001600020600101549650600760008a815260200190815260200160002060020160009054906101000a900473ffffffffffffffffffffffffffffffffffffffff169550600760008a815260200190815260200160002060030160009054906101000a900473ffffffffffffffffffffffffffffffffffffffff169450600760008a81526020019081526020016000206004018054600181600116156101000203166002900480601f01602080910402602001604051908101604052809291908181526020018280546001816001161561010002031660029004801561115a5780601f1061112f5761010080835404028352916020019161115a565b820191906000526020600020905b81548152906001019060200180831161113d57829003601f168201915b50505050509350600760008a81526020019081526020016000206005018054600181600116156101000203166002900480601f01602080910402602001604051908101604052809291908181526020018280546001816001161561010002031660029004801561120b5780601f106111e05761010080835404028352916020019161120b565b820191906000526020600020905b8154815290600101906020018083116111ee57829003601f168201915b50505050509250600760008a81526020019081526020016000206006018054600181600116156101000203166002900480601f0160208091040260200160405190810160405280929190818152602001828054600181600116156101000203166002900480156112bc5780601f10611291576101008083540402835291602001916112bc565b820191906000526020600020905b81548152906001019060200180831161129f57829003601f168201915b50505050509150600760008a81526020019081526020016000206007018054600181600116156101000203166002900480601f01602080910402602001604051908101604052809291908181526020018280546001816001161561010002031660029004801561136d5780601f106113425761010080835404028352916020019161136d565b820191906000526020600020905b81548152906001019060200180831161135057829003601f168201915b50505050509050878787878787878797509750975097509750975097509750919395975091939597565b6113a033611596565b15156113ab57600080fd5b6113b4816121a1565b50565b6113c0336121fb565b565b60006113d8826003611fff90919063ffffffff16565b9050919050565b6113e833610d85565b15156113f357600080fd5b6113fc81612255565b50565b6000611415826001611fff90919063ffffffff16565b9050919050565b806005600781111561142a57fe5b60076000838152602001908152602001600020600b0160009054906101000a900460ff16600781111561145957fe5b14151561146557600080fd5b61146e33610d85565b151561147957600080fd5b336007600084815260200190815260200160002060020160006101000a81548173ffffffffffffffffffffffffffffffffffffffff021916908373ffffffffffffffffffffffffffffffffffffffff1602179055503360076000848152602001908152602001600020600c0160006101000a81548173ffffffffffffffffffffffffffffffffffffffff021916908373ffffffffffffffffffffffffffffffffffffffff160217905550600660076000848152602001908152602001600020600b0160006101000a81548160ff0219169083600781111561155657fe5b02179055507fa8142743f8f70a4c26f3691cf4ed59718381fb2f18070ec52be1f1022d855557826040518082815260200191505060405180910390a15050565b60006115ac826000611fff90919063ffffffff16565b9050919050565b6101e0604051908101604052806006548152602001888152602001600460009054906101000a900473ffffffffffffffffffffffffffffffffffffffff1673ffffffffffffffffffffffffffffffffffffffff1681526020018773ffffffffffffffffffffffffffffffffffffffff168152602001868152602001858152602001848152602001838152602001600654600a8a02018152602001828152602001600081526020016000600781111561166757fe5b8152602001600073ffffffffffffffffffffffffffffffffffffffff168152602001600073ffffffffffffffffffffffffffffffffffffffff168152602001600073ffffffffffffffffffffffffffffffffffffffff1681525060076000898152602001908152602001600020600082015181600001556020820151816001015560408201518160020160006101000a81548173ffffffffffffffffffffffffffffffffffffffff021916908373ffffffffffffffffffffffffffffffffffffffff16021790555060608201518160030160006101000a81548173ffffffffffffffffffffffffffffffffffffffff021916908373ffffffffffffffffffffffffffffffffffffffff1602179055506080820151816004019080519060200190611792929190612468565b5060a08201518160050190805190602001906117af929190612468565b5060c08201518160060190805190602001906117cc929190612468565b5060e08201518160070190805190602001906117e9929190612468565b506101008201518160080155610120820151816009019080519060200190611812929190612468565b5061014082015181600a015561016082015181600b0160006101000a81548160ff0219169083600781111561184357fe5b021790555061018082015181600b0160016101000a81548173ffffffffffffffffffffffffffffffffffffffff021916908373ffffffffffffffffffffffffffffffffffffffff1602179055506101a082015181600c0160006101000a81548173ffffffffffffffffffffffffffffffffffffffff021916908373ffffffffffffffffffffffffffffffffffffffff1602179055506101c082015181600d0160006101000a81548173ffffffffffffffffffffffffffffffffffffffff021916908373ffffffffffffffffffffffffffffffffffffffff1602179055509050506001600654016006819055507f8e55ccfc9778ff8eba1646d765cf1982537ce0f9257054a17b48aad745250183876040518082815260200191505060405180910390a150505050505050565b806006600781111561197d57fe5b60076000838152602001908152602001600020600b0160009054906101000a900460ff1660078111156119ac57fe5b1415156119b857600080fd5b6119c1336113c2565b15156119cc57600080fd5b336007600084815260200190815260200160002060020160006101000a81548173ffffffffffffffffffffffffffffffffffffffff021916908373ffffffffffffffffffffffffffffffffffffffff1602179055503360076000848152602001908152602001600020600d0160006101000a81548173ffffffffffffffffffffffffffffffffffffffff021916908373ffffffffffffffffffffffffffffffffffffffff1602179055506007806000848152602001908152602001600020600b0160006101000a81548160ff02191690836007811115611aa857fe5b02179055507f653d56639fee6b566a5c804764e9689de38645f0b733df89a36a1b7b42173dd8826040518082815260200191505060405180910390a15050565b611af1336122af565b565b8060036007811115611b0157fe5b60076000838152602001908152602001600020600b0160009054906101000a900460ff166007811115611b3057fe5b141515611b3c57600080fd5b60076000838152602001908152602001600020600a0154803410151515611b6257600080fd5b82600080336007600088815260200190815260200160002060020160006101000a81548173ffffffffffffffffffffffffffffffffffffffff021916908373ffffffffffffffffffffffffffffffffffffffff1602179055503360076000888152602001908152602001600020600b0160016101000a81548173ffffffffffffffffffffffffffffffffffffffff021916908373ffffffffffffffffffffffffffffffffffffffff160217905550600460076000888152602001908152602001600020600b0160006101000a81548160ff02191690836007811115611c4357fe5b02179055506007600087815260200190815260200160002060030160009054906101000a900473ffffffffffffffffffffffffffffffffffffffff1673ffffffffffffffffffffffffffffffffffffffff166108fc60076000898152602001908152602001600020600a01549081150290604051600060405180830381858888f19350505050158015611cda573d6000803e3d6000fd5b507f92f64ca637d023f354075a4be751b169c1a8a9ccb6d33cdd0cb3520543995727866040518082815260200191505060405180910390a160076000848152602001908152602001600020600a01549150813403905060076000848152602001908152602001600020600d0160009054906101000a900473ffffffffffffffffffffffffffffffffffffffff1673ffffffffffffffffffffffffffffffffffffffff166108fc829081150290604051600060405180830381858888f19350505050158015611dac573d6000803e3d6000fd5b50505050505050565b8060016007811115611dc357fe5b60076000838152602001908152602001600020600b0160009054906101000a900460ff166007811115611df257fe5b141515611dfe57600080fd5b338073ffffffffffffffffffffffffffffffffffffffff163373ffffffffffffffffffffffffffffffffffffffff16141515611e3957600080fd5b600260076000858152602001908152602001600020600b0160006101000a81548160ff02191690836007811115611e6c57fe5b02179055507f9b3b66e2380b690bae22c73ef1428fb0c91e72fe14a4b6defa13035214187aff836040518082815260200191505060405180910390a1505050565b8060046007811115611ebb57fe5b60076000838152602001908152602001600020600b0160009054906101000a900460ff166007811115611eea57fe5b141515611ef657600080fd5b338073ffffffffffffffffffffffffffffffffffffffff163373ffffffffffffffffffffffffffffffffffffffff16141515611f3157600080fd5b600560076000858152602001908152602001600020600b0160006101000a81548160ff02191690836007811115611f6457fe5b02179055507ff00b9a5725b80c54016f42114f6ed7792d22eecb116011c4afac29c57bef6c95836040518082815260200191505060405180910390a1505050565b611fb981600361230990919063ffffffff16565b8073ffffffffffffffffffffffffffffffffffffffff167f28b26e7a3d20aedbc5f8f2ebf7da671c0491723a2b78f47a097b0e46dee0714260405160405180910390a250565b60008073ffffffffffffffffffffffffffffffffffffffff168273ffffffffffffffffffffffffffffffffffffffff161415151561203c57600080fd5b8260000160008373ffffffffffffffffffffffffffffffffffffffff1673ffffffffffffffffffffffffffffffffffffffff16815260200190815260200160002060009054906101000a900460ff16905092915050565b6120a78160036123b990919063ffffffff16565b8073ffffffffffffffffffffffffffffffffffffffff167fe3f5ed5f263f1f01764a96edfc7d025f511ec5f7d180e8816908b78bcf74f09860405160405180910390a250565b6121018160016123b990919063ffffffff16565b8073ffffffffffffffffffffffffffffffffffffffff167f126174f6cf49c81cdb4a9214c6b8f037bef55b4ec31e4fc776cea2a1c8a88d5960405160405180910390a250565b61215b81600161230990919063ffffffff16565b8073ffffffffffffffffffffffffffffffffffffffff167fddbf200aa634dc3fb81cfd68583dd1040d1c751d335e1d86b631bde3e977fea860405160405180910390a250565b6121b581600061230990919063ffffffff16565b8073ffffffffffffffffffffffffffffffffffffffff167f2e0ded4123377a3c2bc9a26f1717655a129e2f20752924d42e730ec89c83dbd060405160405180910390a250565b61220f8160006123b990919063ffffffff16565b8073ffffffffffffffffffffffffffffffffffffffff167fa5e0f060af304ab17dd418c7927e3da3ae7868189bf387aee09ab179ccc572f260405160405180910390a250565b61226981600261230990919063ffffffff16565b8073ffffffffffffffffffffffffffffffffffffffff167f71ae26cad02663e3d92efd6ec56031a80d74a20c0ab4183faa8bf262261c9baa60405160405180910390a250565b6122c38160026123b990919063ffffffff16565b8073ffffffffffffffffffffffffffffffffffffffff167fdb7176e79cffef81cb01767dd0447a0b24bb72ca9778d4b245581086b2a7e6db60405160405180910390a250565b600073ffffffffffffffffffffffffffffffffffffffff168173ffffffffffffffffffffffffffffffffffffffff161415151561234557600080fd5b61234f8282611fff565b15151561235b57600080fd5b60018260000160008373ffffffffffffffffffffffffffffffffffffffff1673ffffffffffffffffffffffffffffffffffffffff16815260200190815260200160002060006101000a81548160ff0219169083151502179055505050565b600073ffffffffffffffffffffffffffffffffffffffff168173ffffffffffffffffffffffffffffffffffffffff16141515156123f557600080fd5b6123ff8282611fff565b151561240a57600080fd5b60008260000160008373ffffffffffffffffffffffffffffffffffffffff1673ffffffffffffffffffffffffffffffffffffffff16815260200190815260200160002060006101000a81548160ff0219169083151502179055505050565b828054600181600116156101000203166002900490600052602060002090601f016020900481019282601f106124a957805160ff19168380011785556124d7565b828001600101855582156124d7579182015b828111156124d65782518255916020019190600101906124bb565b5b5090506124e491906124e8565b5090565b61250a91905b808211156125065760008160009055506001016124ee565b5090565b905600a165627a7a72305820e27f91ece3362de43b05b6e81682414b367cb380e494887cbebd9d36c1d083b00029",
  "source": "pragma solidity ^0.4.24;\n\nimport '../coffeeaccesscontrol/FarmerRole.sol';\nimport '../coffeeaccesscontrol/DistributorRole.sol';\nimport '../coffeeaccesscontrol/RetailerRole.sol';\nimport '../coffeeaccesscontrol/ConsumerRole.sol';\n// Define a contract 'Supplychain'\ncontract SupplyChain is FarmerRole, DistributorRole, RetailerRole, ConsumerRole{\n\n  // Define 'owner'\n  address owner;\n\n  // Define a variable called 'upc' for Universal Product Code (UPC)\n  uint  upc;\n\n  // Define a variable called 'sku' for Stock Keeping Unit (SKU)\n  uint  sku;\n\n  // Define a public mapping 'items' that maps the UPC to an Item.\n  mapping (uint => Item) items;\n\n  // Define a public mapping 'itemsHistory' that maps the UPC to an array of TxHash, \n  // that track its journey through the supply chain -- to be sent from DApp.\n  mapping (uint => string[]) itemsHistory;\n  \n  // Define enum 'State' with the following values:\n  enum State \n  { \n    Harvested,  // 0\n    Processed,  // 1\n    Packed,     // 2\n    ForSale,    // 3\n    Sold,       // 4\n    Shipped,    // 5\n    Received,   // 6\n    Purchased   // 7\n    }\n\n  State constant defaultState = State.Harvested;\n\n  // Define a struct 'Item' with the following fields:\n  struct Item {\n    uint    sku;  // Stock Keeping Unit (SKU)\n    uint    upc; // Universal Product Code (UPC), generated by the Farmer, goes on the package, can be verified by the Consumer\n    address ownerID;  // Metamask-Ethereum address of the current owner as the product moves through 8 stages\n    address originFarmerID; // Metamask-Ethereum address of the Farmer\n    string  originFarmName; // Farmer Name\n    string  originFarmInformation;  // Farmer Information\n    string  originFarmLatitude; // Farm Latitude\n    string  originFarmLongitude;  // Farm Longitude\n    uint    productID;  // Product ID potentially a combination of upc + sku\n    string  productNotes; // Product Notes\n    uint    productPrice; // Product Price\n    State   itemState;  // Product State as represented in the enum above\n    address distributorID;  // Metamask-Ethereum address of the Distributor\n    address retailerID; // Metamask-Ethereum address of the Retailer\n    address consumerID; // Metamask-Ethereum address of the Consumer\n  }\n\n  // Define 8 events with the same 8 state values and accept 'upc' as input argument\n  event Harvested(uint upc);\n  event Processed(uint upc);\n  event Packed(uint upc);\n  event ForSale(uint upc);\n  event Sold(uint upc);\n  event Shipped(uint upc);\n  event Received(uint upc);\n  event Purchased(uint upc);\n\n  // Define a modifer that checks to see if msg.sender == owner of the contract\n  modifier onlyOwner() {\n    require(msg.sender == owner);\n    _;\n  }\n\n  // Define a modifer that verifies the Caller\n  modifier verifyCaller (address _address) {\n    require(msg.sender == _address); \n    _;\n  }\n\n  // Define a modifier that checks if the paid amount is sufficient to cover the price\n  modifier paidEnough(uint _price) { \n    require(msg.value >= _price); \n    _;\n  }\n  \n  // Define a modifier that checks the price and refunds the remaining balance\n  modifier checkValue(uint _upc) {\n    _;\n    uint _price = items[_upc].productPrice;\n    uint amountToReturn = msg.value - _price;\n    items[_upc].consumerID.transfer(amountToReturn);\n  }\n\n  // Define a modifier that checks if an item.state of a upc is Harvested\n  modifier harvested(uint _upc) {\n    require(items[_upc].itemState == State.Harvested);\n    _;\n  }\n\n  // Define a modifier that checks if an item.state of a upc is Processed\n  modifier processed(uint _upc) {\n    require(items[_upc].itemState == State.Processed);\n    _;\n  }\n  \n  // Define a modifier that checks if an item.state of a upc is Packed\n  modifier packed(uint _upc) {\n    require(items[_upc].itemState == State.Packed);\n    _;\n  }\n\n  // Define a modifier that checks if an item.state of a upc is ForSale\n  modifier forSale(uint _upc) {\n    require(items[_upc].itemState == State.ForSale);\n    _;\n  }\n\n  // Define a modifier that checks if an item.state of a upc is Sold\n  modifier sold(uint _upc) {\n    require(items[_upc].itemState == State.Sold);\n    _;\n  }\n  \n  // Define a modifier that checks if an item.state of a upc is Shipped\n  modifier shipped(uint _upc) {\n    require(items[_upc].itemState == State.Shipped);\n    _;\n  }\n\n  // Define a modifier that checks if an item.state of a upc is Received\n  modifier received(uint _upc) {\n    require(items[_upc].itemState == State.Received);\n    _;\n  }\n\n  // Define a modifier that checks if an item.state of a upc is Purchased\n  modifier purchased(uint _upc) {\n    require(items[_upc].itemState == State.Purchased);\n    _;\n  }\n\n  // In the constructor set 'owner' to the address that instantiated the contract\n  // and set 'sku' to 1\n  // and set 'upc' to 1\n  constructor() public payable {\n    owner = msg.sender;\n    sku = 1;\n    upc = 1;\n  }\n\n  // Define a function 'kill' if required\n  function kill() public {\n    if (msg.sender == owner) {\n      selfdestruct(owner);\n    }\n  }\n\n  // Define a function 'harvestItem' that allows a farmer to mark an item 'Harvested'\n  function harvestItem(uint _upc, address _originFarmerID, string _originFarmName, string _originFarmInformation, string  _originFarmLatitude, string  _originFarmLongitude, string  _productNotes) public \n  {\n    // Add the new item as part of Harvest\n    items[_upc] = Item({\n     sku: sku,\n     upc: _upc,\n     ownerID: owner,\n     originFarmerID: _originFarmerID,\n     originFarmName: _originFarmName,\n     originFarmInformation: _originFarmInformation,\n     originFarmLatitude: _originFarmLatitude,\n     originFarmLongitude: _originFarmLongitude,\n     productID: _upc * 10 + sku,\n     productNotes: _productNotes,\n     productPrice: 0,\n     itemState: State.Harvested,\n     distributorID: 0,\n     retailerID: 0,\n     consumerID: 0\n     });\n    // Increment sku\n    sku = sku + 1;\n    // Emit the appropriate event\n    emit Harvested(_upc);\n  }\n\n  // Define a function 'processtItem' that allows a farmer to mark an item 'Processed'\n  function processItem(uint _upc) public \n  // Call modifier to check if upc has passed previous supply chain stage\n  harvested(_upc)\n  // Call modifier to verify caller of this function\n  verifyCaller(msg.sender)\n  {\n    // Update the appropriate fields\n    items[_upc].itemState = State.Processed;\n    // Emit the appropriate event\n    emit Processed(_upc);\n  }\n\n  // Define a function 'packItem' that allows a farmer to mark an item 'Packed'\n  function packItem(uint _upc) public \n  // Call modifier to check if upc has passed previous supply chain stage\n  processed(_upc)\n  // Call modifier to verify caller of this function\n  verifyCaller(msg.sender)\n  {\n    // Update the appropriate fields\n    items[_upc].itemState = State.Packed;\n    // Emit the appropriate event\n    emit Packed(_upc);\n  }\n\n  // Define a function 'sellItem' that allows a farmer to mark an item 'ForSale'\n  function sellItem(uint _upc, uint _price) public \n  // Call modifier to check if upc has passed previous supply chain stage\n  packed(_upc)\n  // Call modifier to verify caller of this function\n  verifyCaller(msg.sender)\n  {\n    // Update the appropriate fields\n    items[_upc].productPrice = _price;\n    items[_upc].itemState = State.ForSale;\n    // Emit the appropriate event\n    emit ForSale(_upc);\n  }\n\n  // Define a function 'buyItem' that allows the disributor to mark an item 'Sold'\n  // Use the above defined modifiers to check if the item is available for sale, if the buyer has paid enough, \n  // and any excess ether sent is refunded back to the buyer\n  function buyItem(uint _upc) public payable \n    // Call modifier to check if upc has passed previous supply chain stage\n    forSale(_upc)\n    // Call modifer to check if buyer has paid enough\n    paidEnough(items[_upc].productPrice)\n    // Call modifer to send any excess ether back to buyer\n    checkValue(_upc)\n    {\n    \n    // Update the appropriate fields - ownerID, distributorID, itemState\n    items[_upc].ownerID = msg.sender;\n    items[_upc].distributorID = msg.sender;\n    items[_upc].itemState = State.Sold;\n    // Transfer money to farmer\n    items[_upc].originFarmerID.transfer(items[_upc].productPrice);\n    // emit the appropriate event\n    emit Sold(_upc);\n  }\n\n  // Define a function 'shipItem' that allows the distributor to mark an item 'Shipped'\n  // Use the above modifers to check if the item is sold\n  function shipItem(uint _upc) public \n    // Call modifier to check if upc has passed previous supply chain stage\n    sold(_upc)\n    // Call modifier to verify caller of this function\n    verifyCaller(msg.sender)\n    {\n    // Update the appropriate fields\n    items[_upc].itemState = State.Shipped;\n    // Emit the appropriate event\n    emit Shipped(_upc);\n  }\n\n  // Define a function 'receiveItem' that allows the retailer to mark an item 'Received'\n  // Use the above modifiers to check if the item is shipped\n  function receiveItem(uint _upc) public \n    // Call modifier to check if upc has passed previous supply chain stage\n    shipped(_upc)\n    // Access Control List enforced by calling Smart Contract / DApp\n    onlyRetailer\n    {\n    // Update the appropriate fields - ownerID, retalerID, itemState\n    items[_upc].ownerID = msg.sender;\n    items[_upc].retailerID = msg.sender;\n    items[_upc].itemState = State.Received;\n    // Emit the appropriate event\n    emit Received(_upc);\n  }\n\n  // Define a function 'purchaseItem' that allows the consumer to mark an item 'Purchased'\n  // Use the above modifiers to check if the item is received\n  function purchaseItem(uint _upc) public \n    // Call modifier to check if upc has passed previous supply chain stage\n    received(_upc)\n    // Access Control List enforced by calling Smart Contract / DApp\n    onlyConsumer\n    {\n    // Update the appropriate fields - ownerID, consumerID, itemState\n    items[_upc].ownerID = msg.sender;\n    items[_upc].consumerID = msg.sender;\n    items[_upc].itemState = State.Purchased;\n    // Emit the appropriate event\n    emit Purchased(_upc);\n  }\n\n  // Define a function 'fetchItemBufferOne' that fetches the data\n  function fetchItemBufferOne(uint _upc) public view returns \n  (\n  uint    itemSKU,\n  uint    itemUPC,\n  address ownerID,\n  address originFarmerID,\n  string  originFarmName,\n  string  originFarmInformation,\n  string  originFarmLatitude,\n  string  originFarmLongitude\n  ) \n  {\n  // Assign values to the 8 parameters\n  itemSKU = items[_upc].sku;\n  itemUPC = items[_upc].upc;\n  ownerID = items[_upc].ownerID;\n  originFarmerID = items[_upc].originFarmerID;\n  originFarmName = items[_upc].originFarmName;\n  originFarmInformation = items[_upc].originFarmInformation;\n  originFarmLatitude = items[_upc].originFarmLatitude;\n  originFarmLongitude = items[_upc].originFarmLongitude;\n  \n  return \n  (\n  itemSKU,\n  itemUPC,\n  ownerID,\n  originFarmerID,\n  originFarmName,\n  originFarmInformation,\n  originFarmLatitude,\n  originFarmLongitude\n  );\n  }\n\n  // Define a function 'fetchItemBufferTwo' that fetches the data\n  function fetchItemBufferTwo(uint _upc) public view returns \n  (\n  uint    itemSKU,\n  uint    itemUPC,\n  uint    productID,\n  string  productNotes,\n  uint    productPrice,\n  uint    itemState,\n  address distributorID,\n  address retailerID,\n  address consumerID\n  ) \n  {\n    // Assign values to the 9 parameters\n  itemSKU = items[_upc].sku;\n  itemUPC = items[_upc].upc;\n  productID = items[_upc].productID;\n  productNotes = items[_upc].productNotes;\n  productPrice = items[_upc].productPrice;\n  itemState = uint(items[_upc].itemState);\n  distributorID = items[_upc].distributorID;\n  retailerID = items[_upc].retailerID;\n  consumerID = items[_upc].consumerID;\n\n  return \n  (\n  itemSKU,\n  itemUPC,\n  productID,\n  productNotes,\n  productPrice,\n  itemState,\n  distributorID,\n  retailerID,\n  consumerID\n  );\n  }\n}\n",
  "sourcePath": "/Users/rinatakahashi/Desktop/Development/Udacity/4.Blockchain_Architecture/Project3_submit1/project-6/contracts/coffeebase/SupplyChain.sol",
  "compiler": {
    "name": "solc",
    "version": "0.4.24+commit.e67f0147.Emscripten.clang"
  },
  "schemaVersion": "2.0.1",
  "updatedAt": "2019-09-08T03:56:23.402Z"
}